:100000000C9434000C9446000C9446000C9446006A
:100010000C9446000C9446000C9446000C94460048
:100020000C9446000C9446000C9446000C94460038
:100030000C9446000C9446000C9446000C94460028
:100040000C9446000C9446000C9446000C94460018
:100050000C9446000C9446000C9446000C94460008
:100060000C9446000C94460011241FBECFEFD8E03C
:10007000DEBFCDBF21E0A0E0B1E001C01D92A53000
:10008000B207E1F70E9406020C9423020C940000D0
:10009000289A2FEF89E698E1215080409040E1F7BF
:1000A00000C0000028982FEF89E698E12150804099
:1000B0009040E1F700C00000EBCF4F9902C04D9B8C
:1000C0000BC0289A2FEF81EE94E0215080409040A1
:1000D000E1F700C00000F1CF2898F4CF21E095E0CF
:1000E00085B1822785B93FEF49E688E1315040402C
:1000F0008040E1F700C0000085B1866085B99BB9FA
:100100003FEF43E284EF315040408040E1F700C0D0
:10011000000085B1897F85B91BB83FEF49E688E1CA
:10012000315040408040E1F700C00000D9CF589ADC
:10013000299A92E04F9B0DC085B1892785B92FEF91
:1001400031E18AE7215030408040E1F700C00000F3
:10015000F1CF29982FE738E381E0215030408040EB
:10016000E1F7F4CF419A2AE12A95F1F700C04198CE
:100170008FEF94E32CE0815090402040E1F700C0E5
:1001800000008FEF91E12AE7815090402040E1F795
:1001900000C00000E7CF1092800082E080938100D1
:1001A00010928500109284000895439A0895439810
:1001B0000895329BFECF1092850010928400329BEE
:1001C00007C0809184009091850081369A4EB8F3E3
:1001D0004398809184009091850096958795089525
:1001E000CF93DF93419A8AE18A95F1F700C0419855
:1001F0000E94D900EC01909302018093010122E258
:100200002C9FC0012D9F900D112460ED77E00E947E
:100210000F027093040160930301DF91CF91089561
:1002200088274F998395089588274D998395089538
:100230000E941001811591F08091000191E08927C1
:1002400080930001811559F0289A2FEF89E698E1F3
:10025000215080409040E1F700C0000008952898A8
:10026000F4CF299A0895299808952A9A08952A98EA
:1002700008958BB18C7F8BB9589A08958BB18C7F80
:100280008BB9599A089508958BB1837F8BB95B9A86
:1002900008958BB1837F8BB95A9A089508950E946F
:1002A00035010E9431010E9439012FEF8DE399E45D
:1002B000215080409040E1F700C000000E943E01C4
:1002C0002FEF87EA91E6215080409040E1F700C08F
:1002D00000000E9437010C9433010E9431010E94FA
:1002E0003E012FEF81EE94E0215080409040E1F7F5
:1002F00000C000002FEF8DE399E421508040904032
:10030000E1F700C000002FEF89E698E1215080401E
:100310009040E1F700C000000C9433010E943501C9
:100320000E9444012FEF8DE399E4215080409040DA
:10033000E1F700C000000E9437012FEF89E698E145
:10034000215080409040E1F700C000000E94310140
:100350000E943E010E9435010E9449012FEF87EA69
:1003600091E6215080409040E1F700C000000895E0
:100370000E94F0002FEF84E39CE0215080409040E9
:10038000E1F700C0000080910301909104014597BE
:100390004397C0F40E94D5002FEF89E698E12150E1
:1003A00080409040E1F700C000000E94D7000E940A
:1003B0006D012FEF8DE399E4215080409040E1F7EB
:1003C00000C0000008950E94140181110C946D0179
:1003D00008950E94180180910001811103C00E94BC
:1003E000E301F7CF0E94B801F4CF84B1887F84B9CC
:1003F00084B1876084B985B1887F85B98AE087B97F
:100400008FE58AB980E58BB90C94CB000E94F50189
:100410000E9431010E943E0180E090E00895AA1BF5
:10042000BB1B51E107C0AA1FBB1FA617B70710F0DF
:10043000A61BB70B881F991F5A95A9F78095909511
:0A044000BC01CD010895F894FFCF30
:00000001FF
